:100000000C946C000C948B000C948B000C948B0063
:100010000C948B000C948B000C948B000C948B0034
:100020000C948B000C948B000C948B000C948B0024
:100030000C948B000C948B000C948B000C948B0014
:100040000C948B000C948B000C94F0010C948B009E
:100050000C948B000C948B000C948B000C948B00F4
:100060000C948B000C948B000C948B000C948B00E4
:100070000C948B000C948B000C941A020C948B0043
:100080000C948B000C948B000C948B00A703A203A0
:100090009D03980393038E03890384037F037D03E9
:1000A000820387038C03910396039B03A003A5039C
:1000B000AA0360045B04560451044C044704420440
:1000C0003D04380436043B04400445044A044F040C
:1000D000540459045E04630411241FBECFEFD0E121
:1000E000DEBFCDBF13E0A0E0B1E0EEEFF4E200E050
:1000F0000BBF02C007900D92AA39B107D9F726E0CD
:10010000AAE9B3E001C01D92A83FB207E1F70E943F
:10011000B60C0C947D120C940000611104C02FEFFA
:10012000FC0120830895FC0110820895FC01808168
:1001300021E030E001C0220F4A95EAF7611102C0C8
:10014000282B02C02095282320830895FC0160837A
:100150000895FC01808121E030E001C0220F6A9502
:10016000EAF7411102C0282B02C0209528232083E2
:100170000895FC0180810895FC01808190E002C017
:10018000959587956A95E2F7817008958AB188619F
:100190008AB98BB186608BB9579A109290008FEC18
:1001A00089B908958CB1E0919B03AE2FB0E0A25DB8
:1001B000BB4F8C93EF5F8A3051F4F0E0E25DFB4F70
:1001C000108210929B0381E0809392040895E09343
:1001D0009B0308955F9B1FC05B991BC09CB18091DE
:1001E0009A03E82FF0E0E25DFB4F90838F5F843647
:1001F00018F480939A0302C010929A039A3059F42B
:10020000E0919A03F0E0E25DFB4F108281E0809381
:10021000920410929A0308955D9BFECF8CB90895C5
:10022000CF93DF93EC018991882319F00E940C0190
:10023000FACFDF91CF9108955F9BFECF8CB10895E7
:100240005F9BFECF81E008958BB186FB882780F904
:1002500090E008958BB1082E000C990B892F881F10
:100260008827881F90E008955F9B02C08CB1FCCF67
:10027000089510929204089581E080939204089565
:100280008091920408958EE294E00895EAE9F0E006
:10029000808188618083ABE9B0E08C9186608C932B
:1002A000808180688083109298008FEC8093990001
:1002B00086E080939D00089580919C00E0919D03CD
:1002C000AE2FB0E0A950BB4F8C93EF5F8A3011F096
:1002D0008D3051F4F0E0E950FB4F108210929D03F5
:1002E00081E080935B050895E0939D0308958091DC
:1002F0009B0087FF24C080919B0083FD1EC09091CE
:100300009C0080919C03E82FF0E0E950FB4F908324
:100310008F5F843618F480939C0302C010929C0374
:100320009A3011F09D3059F4E0919C03F0E0E950CF
:10033000FB4F108281E080935B0510929C0308952F
:1003400090919B0095FFFCCF80939C000895CF93E4
:10035000DF93EC018991882319F00E94A001FACF64
:10036000DF91CF91089580919B0087FFFCCF809112
:100370009C00089580919B0087FFFCCF81E0089549
:1003800080919B0086FB882780F990E008958091FA
:100390009B00082E000C990B892F881F8827881F27
:1003A00090E0089580919B0087FF03C080919C009E
:1003B000F9CF089510925B05089581E080935B0565
:1003C000089580915B05089587EF94E008950E9459
:1003D0000C0180E090E008950E941C0190E00895D7
:1003E0001F920F920FB60F9211240BB60F922F93FC
:1003F0003F934F935F936F937F938F939F93AF93AD
:10040000BF93EF93FF930E94D2000E94EA00FF91F6
:10041000EF91BF91AF919F918F917F916F915F917C
:100420004F913F912F910F900BBE0F900FBE0F90E9
:100430001F9018951F920F920FB60F9211240BB6B2
:100440000F922F933F934F935F936F937F938F936D
:100450009F93AF93BF93EF93FF930E945C010E9421
:100460007701FF91EF91BF91AF919F918F917F9114
:100470006F915F914F913F912F910F900BBE0F9015
:100480000FBE0F901F901895E2EFF6E08EE091E01E
:100490009383828380E091E0918380831092650052
:1004A00078940E94C6000E94460160E08AE390E0D2
:1004B0000E948D0060E081E390E00E948D0042E0A8
:1004C00061E081E390E00E94960043E060E081E318
:1004D00090E00E94960040E061E081E690E00E949A
:1004E000960041E061E081E690E00E94960042E0E3
:1004F00061E081E690E00E94960040E062E082E6E2
:1005000090E00E94A9000C94540C8BB383608BBBC9
:100510000C94D102EDE5F5E080E8DF011D928A95AB
:10052000E9F780915C0590E007969F938F938CE1AB
:1005300091E09F938F93FF93EF930E94940F0F90FE
:100540000F900F900F900F900F908DE595E00C9409
:10055000F00A0E94370388E50E940C018AE30E949A
:100560000C0180E20E940C010E94EF0380E20E94D5
:100570000C010E94410389E50E940C018AE30E945C
:100580000C0180E20E940C010E940E0480E20E9495
:100590000C010E94830C8AE00E940C018DE00C94F7
:1005A0000C010E94E00B0C94A902893E23E0920703
:1005B00018F48436910520F481E080936500089555
:1005C0001092650008958F929F92AF92BF92CF9242
:1005D000DF92EF92FF920F931F93CF93DF936B0104
:1005E000EA017901861B970BBC0180E090E00E9434
:1005F000230E4B015C01B8016E197F09072E000C18
:10060000880B990B0E94250E9B01AC01C501B4011A
:100610000E94B10E4B015C01BE016C197D0980E0A6
:1006200090E00E94230E9B01AC01C501B4010E9421
:100630007B0D4B015C01B701FF0C880B990B0E94ED
:10064000250E9B01AC01C501B4010E940F0D0E9453
:10065000ED0DCB01DF91CF911F910F91FF90EF90A6
:10066000DF90CF90BF90AF909F908F9008950E94A1
:1006700096090E94AA0990935E0680935D060C94E9
:10068000D5020E949F090E94AA0990936006809358
:100690005F060C94D50280915D0690915E060895E8
:1006A00080915F06909160060895EDE5F6E0838104
:1006B0008F9382818F9381818F9380818F938CE23E
:1006C00091E09F938F938DED95E09F938F930E9480
:1006D000940F8DB79EB708960FB6F8949EBF0FBEC5
:1006E0008DBF8DED95E00895099683319105A8F5AC
:1006F0008A5B9F4FFC010C94F10C80E32CC08DE2CF
:100700000E940C0181E327C08DE20E940C0182E36C
:1007100022C08DE20E940C0183E31DC08DE20E9485
:100720000C0184E318C08DE20E940C0185E313C024
:100730008DE20E940C0186E30EC08DE20E940C0146
:1007400087E309C08DE20E940C0188E304C08DE2BA
:100750000E940C0189E30C940C0108950F931F93E0
:10076000CF93DF93EC0197FF06C08DE20E940C014E
:10077000D195C195D109C93E83E0D8078CF0CE014F
:1007800068EE73E00E94BB0C9B0164E670E00E947F
:10079000BB0C8B01EC01C9010E947403C8010AC0A3
:1007A000CE01C536D10554F064E670E00E94BB0C62
:1007B000EC01CB010E947403CE0102C02B974CF0D8
:1007C0006AE070E00E94BB0CEC01CB010E94740354
:1007D000CE01DF91CF911F910F910C947403609122
:1007E0005D0670915E0680E090E00E94230E20E09E
:1007F00030E048E453E40E94B10E20E030E040E8ED
:100800005AE30E94B10E20E030E048EC52E40E942E
:100810000E0D0E94ED0DCB010C94AE0360915F06AE
:100820007091600680E090E00E94230E20E030E0AE
:1008300048E453E40E94B10E20E030E040E85AE37F
:100840000E94B10E20E030E048EC52E40E940E0D10
:100850000E94ED0DCB010C94AE03099683319105F6
:10086000A8F5875A9F4FFC010C94F10C80E32CC033
:100870008DE20E94A00181E327C08DE20E94A001C9
:1008800082E322C08DE20E94A00183E31DC08DE2BD
:100890000E94A00184E318C08DE20E94A00185E3BC
:1008A00013C08DE20E94A00186E30EC08DE20E947B
:1008B000A00187E309C08DE20E94A00188E304C083
:1008C0008DE20E94A00189E30C94A00108950F938A
:1008D0001F93CF93DF93EC0197FF06C08DE20E9438
:1008E000A001D195C195D109C93E83E0D8078CF00C
:1008F000CE0168EE73E00E94BB0C9B0164E670E0E1
:100900000E94BB0C8B01EC01C9010E942D04C8019F
:100910000AC0CE01C536D10554F064E670E00E94ED
:10092000BB0CEC01CB010E942D04CE0102C02B9721
:100930004CF06AE070E00E94BB0CEC01CB010E941D
:100940002D04CE01DF91CF911F910F910C942D04B6
:10095000FF920F931F93CF93DF93CDB7DEB7C058AD
:10096000D1090FB6F894DEBF0FBECDBFF82E60914F
:100970005D0670915E0680E090E00E94230E20E00C
:1009800030E048E453E40E94B10E20E030E040E85B
:100990005AE30E94B10E20E030E048EC52E40E949D
:1009A0000E0D0E94ED0D60936106709362068E013C
:1009B0000F5F1F4F80E8F80111928A95E9F77F9346
:1009C0006F938FE592E09F938F931F930F930E94F5
:1009D000940FF80101900020E9F73197CF01801BB7
:1009E000910B0F900F900F900F900F900F908F0D15
:1009F000C058DF4F0FB6F894DEBF0FBECDBFDF91FA
:100A0000CF911F910F91FF9008950C94A8046091CD
:100A10005D0670915E0680E090E00E94230E20E06B
:100A200030E048E453E40E94B10E20E030E040E8BA
:100A30005AE30E94B10E20E030E048EC52E40E94FC
:100A40000E0D0E94ED0DCB010C94670460915F06C2
:100A50007091600680E090E00E94230E20E030E07C
:100A600048E453E40E94B10E20E030E040E85AE34D
:100A70000E94B10E20E030E048EC52E40E940E0DDE
:100A80000E94ED0DCB010C9467042F923F924F9280
:100A90005F926F927F928F929F92AF92BF92CF920E
:100AA000DF92EF92FF920F931F93CF93DF93CDB717
:100AB000DEB72C970FB6F894DEBF0FBECDBF1C017A
:100AC0002DB73EB738872F83FC0101900020E9F74E
:100AD0003197E81BF90BCF0199279A8389830197F6
:100AE0009E838D83EDB7FEB729813A81E21BF30B1C
:100AF0000FB6F894FEBF0FBEEDBF0DB71EB70F5F68
:100B00001F4F812C912C5401C80101969A87898727
:100B1000ED81FE81E00FF11FFC87EB8780919E0342
:100B200090919F03A091A003B091A103805F984D85
:100B3000AF4FBF4F88169906AA06BB0650F0109219
:100B40009E0310929F031092A0031092A10382E0D3
:100B500060C080916306843011F410926306EEEA5F
:100B6000F3E001900020E9F73197CF018E5A9340CE
:100B70006C01E12CF12CC114D104E104F10409F45D
:100B800070C08FE99FE00197F1F700C000009FEF70
:100B9000891A990AA90AB90AEEEAF3E0019000203D
:100BA000E9F73197CF018E5A9340A0E0B0E0C81624
:100BB000D906EA06FB0609F054C0EEEAF3E0FC832E
:100BC000EB83412C512C32014D815E8169857A8500
:100BD000C8010E94270FEB81FC818191FC83EB838C
:100BE000EB85FC85808349815A81B101C8010E944F
:100BF000490FFFEF4F1A5F0A6F0A7F0A892B59F5D9
:100C000010929E0310929F031092A0031092A103D2
:100C100081E080936306EF81F8850FB6F894FEBFFC
:100C20000FBEEDBF2C960FB6F894DEBF0FBECDBF42
:100C3000DF91CF911F910F91FF90EF90DF90CF90B8
:100C4000BF90AF909F908F907F906F905F904F90EC
:100C50003F902F9008954C145D046E047F0408F4B7
:100C6000B3CF8FE99FE00197F1F700C000009FEF3D
:100C7000891A990AA90AB90A51CF80E8EEEAF3E085
:100C8000DF011D928A95E9F71092A5031092A40343
:100C90001092A3031092A2030895CF93DF93EC0167
:100CA00084E080936306CE010E944505809163062F
:100CB0008823C9F3DF91CF910895CF92DF92EF920D
:100CC000FF920F931F93CF93DF9300D000D01F921A
:100CD000CDB7DEB78C01BC01645F7F4FFB016F01B4
:100CE000C01AD10A81918D30D1F7A6014C5051091B
:100CF000CE0101960E94570FF80101900020E9F7FC
:100D00003197E01BF10BB6016E5F7F4F7F01E61A52
:100D1000F70A600F711FA701C8010E941E0F86E02D
:100D2000E81AF1080E0D1F1D46E050E06DE371E07A
:100D3000C8010E94490F892B41F4A601485F5F4F0B
:100D400060E070E0C8010E94390F0F900F900F9083
:100D50000F900F90DF91CF911F910F91FF90EF9027
:100D6000DF90CF9008950E944D0681E09091630638
:100D7000923009F480E008950F931F93CF93DF938F
:100D80008C01EB010E943D06C8010E94A70188E981
:100D900092E00E94A701CE01DF91CF911F910F91A8
:100DA0000C94B3060F931F93CF93DF93CDB7DEB7A9
:100DB00064970FB6F894DEBF0FBECDBF8E010F5FF4
:100DC0001F4F94E1F80111929A95E9F71F928F93C2
:100DD00084E491E09F938F931F930F930E94940F4D
:100DE0001C8A6DE371E0C8010E94BC060F900F9051
:100DF0000F900F900F900F9064960FB6F894DEBF8F
:100E00000FBECDBFDF91CF911F910F9108950F932A
:100E10001F93CF93DF93CDB7DEB764970FB6F894E7
:100E2000DEBF0FBECDBF8E010F5F1F4F94E1F801F3
:100E300011929A95E9F71F928F9382E591E09F9323
:100E40008F931F930F930E94940F1C8A6DE371E0A0
:100E5000C8010E94BC060F900F900F900F900F904A
:100E60000F9064960FB6F894DEBF0FBECDBFDF9132
:100E7000CF911F910F910895CF93C5E06FE371E07B
:100E80008FE591E00E94BC06882311F081E00AC042
:100E90006FE371E084E691E00E94BC068111F6CF19
:100EA000C15061F7CF9108956DE371E087E691E05D
:100EB0000C94BC060F931F93CF93DF93CDB7DEB78F
:100EC00064970FB6F894DEBF0FBECDBF8E010F5FE3
:100ED0001F4F94E1F80111929A95E9F71F928F93B1
:100EE00085E791E09F938F931F930F930E94940F38
:100EF0001C8A6DE371E0C8010E94BC060F900F9040
:100F00000F900F900F900F9064960FB6F894DEBF7D
:100F10000FBECDBFDF91CF911F910F9108950F9319
:100F20001F93CF93DF93CDB7DEB7EC970FB6F8944E
:100F3000DEBF0FBECDBF8E010F5F1F4F2CE3F80148
:100F400011922A95E9F77F936F939F938F9382E88D
:100F500091E09F938F931F930F930E94940F1CAE69
:100F600065E971E0C8010E94BC060FB6F894DEBFC7
:100F70000FBECDBF811122C068EA71E08EEA93E016
:100F80000E94660F892BE1F461EB71E08EEA93E039
:100F90000E94660F892BB1F46AEB71E08EEA93E050
:100FA0000E94660F892B81F463EC71E08EEA93E076
:100FB0000E94660F892B51F485E009C080E007C0CC
:100FC00081E005C082E003C083E001C084E0EC96CC
:100FD0000FB6F894DEBF0FBECDBFDF91CF911F914A
:100FE0000F9108956DE371E08CEC91E00E94BC06D6
:100FF00069ED71E08EEA93E00E94660F892BD1F4CF
:1010000062EE71E08EEA93E00E94660F892BA1F4F4
:101010006BEE71E08EEA93E00E94660F892B71F40B
:1010200064EF71E08EEA93E00E94660F892B41F431
:1010300084E0089580E0089581E0089582E00895B5
:1010400083E00895BF92CF92DF92EF92FF920F93C9
:101050001F93CF93DF93CDB7DEB7EC970FB6F8941D
:10106000DEBF0FBECDBFB82EF62EE72ED42EC52E76
:101070008E010F5F1F4F8CE3F80111928A95E9F7FB
:101080006DEF71E086E092E00E94BC06882369F073
:10109000CF92DF92EF92FF9281E192E09F938F9344
:1010A0001F930F930E94940F0EC0CF92DF92EF9286
:1010B000FF921F92BF928BE292E09F938F931F93B8
:1010C0000F930E94940F0FB6F894DEBF0FBECDBFF2
:1010D0006AE472E0C8010E94BC06811106C08091DA
:1010E0006306823021F085E003C081E001C082E028
:1010F000EC960FB6F894DEBF0FBECDBFDF91CF9157
:101100001F910F91FF90EF90DF90CF90BF900895C7
:10111000EF92FF920F931F93CF93DF93CDB7DEB77C
:10112000C058D1090FB6F894DEBF0FBECDBF8C01F9
:10113000CE0101967C0180E8F70111928A95E9F7CA
:10114000F80101900020E9F7CF01801B910B019677
:101150009F938F9384E592E09F938F93FF92EF92FA
:101160000E94940FC058DF4F1882C058D040C7016A
:101170000E94F00AFFEF21EE84E0F1502040804011
:10118000E1F700C00000C8010E94F00A0F900F9024
:101190000F900F900F900F90C058DF4F0FB6F8943C
:1011A000DEBF0FBECDBFDF91CF911F910F91FF909A
:1011B000EF9008958091A4039091A5032091A2033C
:1011C0003091A303821B930B08952091A2033091C9
:1011D000A3038091A4039091A5032817390784F4F1
:1011E0008091A2039091A3039C012F5F3F4F309306
:1011F000A3032093A203FC01E255FC4F80810895D4
:101200000E943D0680E00895EF92FF920F931F9396
:10121000CF93DF938C012FEF81EE94E0215080403B
:101220009040E1F700C00000E8017E01E01AF10AF9
:101230000E94DA081816190624F40E94E50889931A
:10124000F4CFC701DF91CF911F910F91FF90EF90E5
:1012500008952FB7F894E091A403F091A50380912D
:101260009C00E255FC4F80838091A4039091A503DC
:1012700001969093A5038093A4038091A403909179
:10128000A5038038910541F41092A5031092A403A0
:101290001092A3031092A2032FBF08950F931F93E0
:1012A000CF93DF93CDB7DEB7C058D1090FB6F8940E
:1012B000DEBF0FBECDBF8C010E944D06C8010E944B
:1012C000A701CE0101960E940409009759F0E1E0C0
:1012D000F0E0EC0FFD1FE80FF91F1082CE01019620
:1012E0000E94A701C058DF4F0FB6F894DEBF0FBEB3
:1012F000CDBFDF91CF911F910F9108950F931F9351
:10130000CF93DF938C01EB010E943D06BE01C80123
:101310000E94BC06C82F882319F0C8010E944E09FC
:101320008C2FDF91CF911F910F9108953E9A87B135
:10133000807E87B9379A86B1876086B9089587B16C
:10134000816487B987B1817E87B9379A86B1876012
:1013500086B90895369A3699FECF84B125B190E0CA
:10136000922B08959B01AC0160E079E08DE390E061
:101370000E94CF0CC90108956817790718F4861BDD
:10138000970B089581E090E0089520E130E0019707
:1013900020F0F9013197F1F7FACF08959B01AC01E4
:1013A00060E079E08DE390E00E94CF0CB901243039
:1013B000310518F0C901039702C081E090E09093D5
:1013C000AD038093AC03C901969587958231910551
:1013D00010F0419702C081E090E09093AB038093BE
:1013E000AA036630710518F0C901059702C081E0B3
:1013F00090E09093A9038093A803C901880F991FD7
:10140000280F391F36952795369527952D303105AC
:1014100018F02C50310902C021E030E03093A703CE
:101420002093A60342E061E081E390E00E949600F1
:1014300040E062E082E390E00E94A90043E060E0C7
:1014400081E390E00E94960040E063E082E390E058
:101450000E94A90089B7846089BF8AB780638ABF68
:1014600008950F931F93CF93DF93082F9398809144
:10147000AC039091AD030E94C509C0E0D0E0002EFE
:10148000000C110BC8010C2E02C0959587950A948B
:10149000E2F780FF02C0939A01C093988091AC0359
:1014A0009091AD030E94C5092196C830D10551F72E
:1014B000939A8091AC039091AD03DF91CF911F91EE
:1014C0000F910C94C50982990FC08091AA03909145
:1014D000AB030E94C5098091A6039091A7030E94C7
:1014E000C50980E00C94310A089582E882BF83B771
:1014F000856083BF87B7816087BF089585B58360A6
:1015000085BD80E887BF85B5886085BD89EF83BDCF
:101510000895CF92DF92EF92FF920F931F93CF9394
:101520008C011092E4061092E5061092E6061092E5
:10153000E706C0E06B01E12CF12C8091E40690916C
:10154000E506A091E606B091E7068C159D05AE056F
:10155000BF05F0F50E94C701892B01F10E94E1014E
:101560008823A9F00E94DA010E94E4019093E90621
:101570008093E8060E94B301EC2FF0E0EC59F94F9C
:101580008083CF5FEC2FF0E0EC59F94F1082B80167
:1015900084E696E00E94400F892BD1F08FE99FE00E
:1015A0000197F1F700C000008091E4069091E506F4
:1015B000A091E606B091E7060196A11DB11D8093AA
:1015C000E4069093E506A093E606B093E706B5CF50
:1015D000CF911F910F91FF90EF90DF90CF900895E2
:1015E0000C94A701CF92DF92EF92FF927C016B01E6
:1015F0000E94D20182E692E00E94A701C7010E94E8
:10160000A7018091EA069091EB06892B19F088E9F1
:1016100092E002C089E692E00E94A7011092E406DF
:101620001092E5061092E6061092E706E12CF12CE6
:101630008091E4069091E506A091E606B091E70658
:101640008C159D05AE05BF0508F50E94C701EFE9A1
:10165000FFE03197F1F700C000004091E40650919F
:10166000E5066091E6067091E7064F5F5F4F6F4FAA
:101670007F4F4093E4065093E5066093E60670932F
:10168000E706892BA9F281E090E002C080E090E0BB
:10169000FF90EF90DF90CF9008958F929F92AF923E
:1016A000BF92EF92FF920F931F93CF938C017B0118
:1016B0004A010E941001C8010E94A7011092E4068D
:1016C0001092E5061092E6061092E706C0E0A12C03
:1016D000B12C0BE612E08091E4069091E506A09112
:1016E000E606B091E70688159905AA05BB0508F03E
:1016F0004EC00E94C701892B41F10E94E10188235D
:1017000021F10E94DA01CF37D0F40E94B301EC2F0F
:10171000F0E0EC59F94F8083CF5FEC2FF0E0EC590B
:10172000F94F1082B70184E696E00E94660F31E01F
:1017300020E0892B09F430E0832F922F08C01F93FB
:101740000F930E94800F0F900F9080E090E0EFE9E0
:10175000FFE03197F1F700C000004091E40650919E
:10176000E5066091E6067091E7064F5F5F4F6F4FA9
:101770007F4F4093E4065093E5066093E60670932E
:10178000E706892B09F4A7CF01E010E002C000E0D2
:1017900010E08FE792E00E94100186E892E00E943C
:1017A000100188E992E00E941001C801CF911F91B9
:1017B0000F91FF90EF90BF90AF909F908F90089502
:1017C000CF93DF930E944001882309F46AC00E94EE
:1017D00039010E944301EC016BE872E00E94400F66
:1017E000892BA9F481E08093650040ED57E06FE319
:1017F00071E0CE010E944D0B892B19F080E992E037
:1018000002C08BE992E0DF91CF910C94100161EB63
:1018100072E0CE010E94400F892B21F36AEB72E047
:10182000CE010E94400F892BE9F268EC72E0CE01F4
:101830000E94400F892BB1F266ED72E0CE010E944A
:10184000400F892B79F264EE72E0CE010E94400FC6
:10185000892B41F267E073E0CE010E94400F892B93
:1018600009F26FE273E0CE010E94400F892B09F468
:10187000B9CF67E573E0CE010E94400F892B09F4D0
:10188000B1CF6FE773E0CE010E94400F892B09F4BE
:10189000A9CF6CE873E0CE010E94400F892B09F4B8
:1018A000A1CFDF91CF91089522E040E250E061E6C0
:1018B00070E08CEE96E00C94850C8CEE96E00E9425
:1018C000920C813071F483E50E940C0187E50E943F
:1018D0000C018AE30E940C0180E20E940C0181E36A
:1018E0000DC083E50E940C0187E50E940C018AE38C
:1018F0000E940C0180E20E940C0180E30E940C0116
:1019000080E20C940C010C945D0CFC01CB01718302
:10191000608353834283248331E03583422F61E027
:101920000C949600CF93DF93EC016C818A819B81AC
:101930000E94BC009D8181110BC09130A1F48FE306
:101940009CE90197F1F700C000001D8280E00BC008
:10195000911109C08FE39CE90197F1F700C00000E5
:1019600081E08D8300C0DF91CF9108950E944402F1
:101970000E948502FDCF97FB072E16F4009407D036
:1019800077FD09D00E94FA0C07FC05D03EF4909533
:1019900081959F4F0895709561957F4F0895A1E2BD
:1019A0001A2EAA1BBB1BFD010DC0AA1FBB1FEE1FD9
:1019B000FF1FA217B307E407F50720F0A21BB30B24
:1019C000E40BF50B661F771F881F991F1A9469F7A0
:1019D00060957095809590959B01AC01BD01CF01FC
:1019E0000895EE0FFF1F0024001C0BBE0790F69118
:1019F000E02D0994AA1BBB1B51E107C0AA1FBB1F06
:101A0000A617B70710F0A61BB70B881F991F5A958A
:101A1000A9F780959095BC01CD0108955058BB273A
:101A2000AA270E94260D0C94770E0E94690E38F0AA
:101A30000E94700E20F039F49F3F19F426F40C94A4
:101A4000660E0EF4E095E7FB0C94600EE92F0E9401
:101A5000880E58F3BA17620773078407950720F0BA
:101A600079F4A6F50C94AA0E0EF4E0950B2EBA2F7D
:101A7000A02D0B01B90190010C01CA01A001112494
:101A8000FF27591B99F0593F50F4503E68F11A1640
:101A9000F040A22F232F342F4427585FF3CF4695D1
:101AA00037952795A795F0405395C9F77EF41F16F3
:101AB000BA0B620B730B840BBAF09150A1F0FF0FBD
:101AC000BB1F661F771F881FC2F70EC0BA0F621FA9
:101AD000731F841F48F4879577956795B795F79599
:101AE0009E3F08F0B0CF9395880F08F09927EE0F2E
:101AF0009795879508950E948F0D0C94770E0E94FC
:101B0000700E58F00E94690E40F029F45F3F29F0F2
:101B10000C94600E51110C94AB0E0C94660E0E9446
:101B2000880E68F39923B1F3552391F3951B550B58
:101B3000BB27AA2762177307840738F09F5F5F4FA0
:101B4000220F331F441FAA1FA9F335D00E2E3AF0DF
:101B5000E0E832D091505040E695001CCAF72BD0F7
:101B6000FE2F29D0660F771F881FBB1F2617370748
:101B70004807AB07B0E809F0BB0B802DBF01FF277A
:101B800093585F4F3AF09E3F510578F00C94600EE9
:101B90000C94AB0E5F3FE4F3983ED4F386957795B3
:101BA0006795B795F7959F5FC9F7880F911D969533
:101BB000879597F90895E1E0660F771F881FBB1F8F
:101BC000621773078407BA0720F0621B730B840B3C
:101BD000BA0BEE1F88F7E09508950E94F40D689403
:101BE000B1110C94AB0E08950E94900E88F09F578F
:101BF00098F0B92F9927B751B0F0E1F0660F771F31
:101C0000881F991F1AF0BA95C9F714C0B13091F026
:101C10000E94AA0EB1E008950C94AA0E672F782FA7
:101C20008827B85F39F0B93FCCF3869577956795EB
:101C3000B395D9F73EF490958095709561957F4F57
:101C40008F4F9F4F0895E89409C097FB3EF49095FD
:101C50008095709561957F4F8F4F9F4F9923A9F085
:101C6000F92F96E9BB279395F69587957795679514
:101C7000B795F111F8CFFAF4BB0F11F460FF1BC058
:101C80006F5F7F4F8F4F9F4F16C0882311F096E9EB
:101C900011C0772321F09EE8872F762F05C0662399
:101CA00071F096E8862F70E060E02AF09A95660F52
:101CB000771F881FDAF7880F9695879597F908950B
:101CC00097F99F6780E870E060E008959FEF80ECEF
:101CD000089500240A941616170618060906089592
:101CE00000240A9412161306140605060895092EF8
:101CF0000394000C11F4882352F0BB0F40F4BF2B67
:101D000011F460FF04C06F5F7F4F8F4F9F4F0895A6
:101D100057FD9058440F551F59F05F3F71F047959C
:101D2000880F97FB991F61F09F3F79F08795089581
:101D3000121613061406551FF2CF4695F1DF08C0A0
:101D4000161617061806991FF1CF869571056105BD
:101D500008940895E894BB2766277727CB0197F965
:101D600008950E94C40E0C94770E0E94690E38F0FC
:101D70000E94700E20F0952311F00C94600E0C94CC
:101D8000660E11240C94AB0E0E94880E70F3959F82
:101D9000C1F3950F50E0551F629FF001729FBB2762
:101DA000F00DB11D639FAA27F00DB11DAA1F649FFE
:101DB0006627B00DA11D661F829F2227B00DA11DB1
:101DC000621F739FB00DA11D621F839FA00D611D37
:101DD000221F749F3327A00D611D231F849F600D58
:101DE000211D822F762F6A2F11249F5750409AF081
:101DF000F1F088234AF0EE0FFF1FBB1F661F771F0D
:101E0000881F91505040A9F79E3F510580F00C94D7
:101E1000600E0C94AB0E5F3FE4F3983ED4F38695CE
:101E200077956795B795F795E7959F5FC1F7FE2B77
:101E3000880F911D9695879597F90895FB01DC0110
:101E400002C001900D9241505040D8F70895681794
:101E5000790768F4FB01DC01E40FF51FA40FB51F3F
:101E600002C002900E9241505040D8F708950C9451
:101E70001E0FDC0101C06D9341505040E0F7089502
:101E8000FB01DC018D91019080190110D9F3990BB0
:101E90000895FB01DC014150504030F08D910190DC
:101EA000801919F40020B9F7881B990B0895FB01DC
:101EB000DC014150504048F001900D920020C9F7DC
:101EC00001C01D9241505040E0F70895FB0151912F
:101ED0005523A9F0BF01DC014D9145174111E1F7F0
:101EE00059F4CD010190002049F04D914015411168
:101EF000C9F3FB014111EFCF81E090E00197089514
:101F0000CF93DF93CDB7DEB7AE014B5F5F4FFA01E2
:101F100061917191AF018091F4069091F5060E9454
:101F2000C30FDF91CF9108950F931F93CF93DF934A
:101F3000CDB7DEB72E970FB6F894DEBF0FBECDBF7C
:101F40000D891E8986E08C831A8309838FEF9FE7B2
:101F50009E838D83AE01475E5F4F6F89788DCE0182
:101F600001960E94C30FEF81F885E00FF11F1082E8
:101F70002E960FB6F894DEBF0FBECDBFDF91CF9186
:101F80001F910F9108952F923F924F925F926F92FF
:101F90007F928F929F92AF92BF92CF92DF92EF92F9
:101FA000FF920F931F93CF93DF93CDB7DEB72B979D
:101FB0000FB6F894DEBF0FBECDBF6C017B018A0166
:101FC000FC0117821682838181FFCCC1CE0101966C
:101FD0003C01F6019381F70193FD859193FF819177
:101FE0007F01882309F4BAC1853239F493FD8591C4
:101FF00093FF81917F01853229F4B60190E00E9420
:10200000E311E7CF912C212C312CFFE1F315D8F00F
:102010008B3279F038F4803279F08332A1F4232DB9
:1020200020611DC08D3261F0803369F4232D216061
:1020300016C0832D8260382EE32DE4603E2E2AC028
:10204000F32DF8601DC037FC2DC020ED280F2A307D
:1020500040F08E32B9F436FC81C1232D2064322E3B
:1020600019C036FE06C08AE0989E200D1124922EDB
:1020700011C0EAE02E9E200D1124222EF32DF062D5
:102080003F2E08C08C3621F4832D8068382E02C084
:10209000883641F4F70193FD859193FF81917F018B
:1020A0008111B3CF982F9F7D9554933028F40C5F06
:1020B0001F4F9FE399830DC0833631F0833771F052
:1020C000833509F059C021C0F801808189830E5FF2
:1020D0001F4F88248394912C530113C02801F2E0F0
:1020E0004F0E511CF801A080B18036FE03C0692D4F
:1020F00070E002C06FEF7FEFC5010E94D8114C0164
:102100008201F32DFF773F2E16C0280122E0420EF8
:10211000511CF801A080B18036FE03C0692D70E02B
:1021200002C06FEF7FEFC5010E94CD114C01F32D6E
:10213000F0683F2E820133FC1BC0822D90E0881690
:102140009906B0F4B60180E290E00E94E3112A946F
:10215000F4CFF50137FC859137FE81915F01B6011F
:1021600090E00E94E31121102A9421E0821A910844
:102170008114910471F7E8C0843611F0893641F575
:10218000F80137FE07C060817181828193810C5F05
:102190001F4F08C060817181072E000C880B990BBE
:1021A0000E5F1F4FF32DFF763F2E97FF09C09095CE
:1021B0008095709561957F4F8F4F9F4FF0683F2EB0
:1021C0002AE030E0A3010E941F12882E861845C025
:1021D000853731F4232D2F7EB22E2AE030E025C042
:1021E000932D997FB92E8F36C1F018F4883579F088
:1021F000B5C0803719F0883721F0B0C0E92FE06111
:10220000BE2EB4FE0DC0FB2DF460BF2E09C034FEFF
:102210000AC0292F2660B22E06C028E030E005C093
:1022200020E130E002C020E132E0F801B7FE07C053
:1022300060817181828193810C5F1F4F06C0608134
:10224000718180E090E00E5F1F4FA3010E941F127A
:10225000882E8618FB2DFF773F2E36FE0DC0232DCE
:102260002E7FA22E891458F434FE0BC032FC09C014
:10227000832D8E7EA82E05C0B82CA32C03C0B82CAD
:1022800001C0B92CA4FE0FC0FE01E80DF11D808134
:10229000803321F49A2D997EA92E09C0A2FE06C092
:1022A000B394B39404C08A2D867809F0B394A3FC48
:1022B00011C0A0FE06C0B21488F4280C922C9B1802
:1022C0000EC0B21460F4B60180E290E00E94E31107
:1022D000B394F7CFB21418F42B1802C0982C212C09
:1022E000A4FE10C0B60180E390E00E94E311A2FEBC
:1022F00017C0A1FC03C088E790E002C088E590E029
:10230000B6010CC08A2D867859F0A1FE02C08BE27E
:1023100001C080E2A7FC8DE2B60190E00E94E311CB
:10232000891438F4B60180E390E00E94E3119A9496
:10233000F7CF8A94F301E80DF11D8081B60190E09A
:102340000E94E3118110F5CF222009F442CEB6019C
:1023500080E290E00E94E3112A94F6CFF601868194
:10236000978102C08FEF9FEF2B960FB6F894DEBFD8
:102370000FBECDBFDF91CF911F910F91FF90EF90D6
:10238000DF90CF90BF90AF909F908F907F906F9095
:102390005F904F903F902F900895FC010590615001
:1023A00070400110D8F7809590958E0F9F1F08956B
:1023B000FC016150704001900110D8F78095909514
:1023C0008E0F9F1F08950F931F93CF93DF93FB01F1
:1023D000238121FD03C08FEF9FEF2CC022FF16C089
:1023E00046815781248135814217530744F4A081E7
:1023F000B1819D012F5F3F4F318320838C932681D4
:1024000037812F5F3F4F3783268314C08B01EC0148
:10241000FB010084F185E02D0995892BE1F6D801B7
:1024200016968D919C911797019617969C938E9373
:102430001697CE01DF91CF911F910F910895FA0168
:10244000AA27283051F1203181F1E8946F936E7FF3
:102450006E5F7F4F8F4F9F4FAF4FB1E03ED0B4E0E4
:102460003CD0670F781F891F9A1FA11D680F791F25
:102470008A1F911DA11D6A0F711D811D911DA11D36
:1024800020D009F468943F912AE0269F1124301946
:10249000305D3193DEF6CF010895462F4770405DE1
:1024A0004193B3E00FD0C9F7F6CF462F4F70405D90
:1024B0004A3318F0495D31FD4052419302D0A9F7EB
:1024C000EACFB4E0A6959795879577956795BA95E5
:1024D000C9F700976105710508959B01AC010A2EAB
:1024E00006945795479537952795BA95C9F7620F82
:0E24F000731F841F951FA01D0895F894FFCF41
:1024FE0000000001000000000000EC0100000000E0
:10250E00000200000000E7010000000041542B43D0
:10251E00495053454E443D25640D0A00583A202536
:10252E0068752C20593A202568750D0A000D0A4F42
:10253E004B0D0A0041542B4349504D4F44453D2508
:10254E00640041542B4349504D55583D256400417C
:10255E005445300041540041542B434950434C4F95
:10256E0053453D310041542B43574D4F44453D2576
:10257E00640041542B43574A41503D222573222C6F
:10258E0022257322000D0A5749464920434F4E4ECD
:10259E0045435445440D0A002B43574A41503A31A6
:1025AE00002B43574A41503A32002B43574A415071
:1025BE003A33002B43574A41503A340041542B438F
:1025CE004950535441545553005354415455533A62
:1025DE0032005354415455533A33005354415455D9
:1025EE00533A34005354415455533A3500434950ED
:1025FE004D55583A300041542B4349504D55583F94
:10260E000041542B43495053544152543D2254439C
:10261E0050222C222573222C25730041542B434922
:10262E005053544152543D222564222C225443507F
:10263E00222C222573222C257300434F4E4E4543E8
:10264E00540D0A0041542B43495053454E443D25E9
:10265E006400092D2D2D3E20000D00427566666525
:10266E0072206973206F766572666C6F7721000930
:10267E003C2D2D2D2000746573740041540D0A00FD
:10268E0053756363657373210D0A004553503832D9
:10269E003636206E6F20726573706F6E73650D0A1D
:1026AE000041542B5253540D0A0041542B43574DA5
:1026BE004F44453D310D0A0041542B43574D4F4475
:1026CE00453D320D0A0041542B43574D4F44453D75
:1026DE00330D0A0041542B43574A41503D22666147
:1026EE006365646F776E222C22646C736775723724
:1026FE00303533220D0A0041542B43495053544177
:10270E0052543D22544350222C223139322E31362E
:10271E00382E302E3133222C353030300D0A004118
:10272E00542B43495053544152543D22544350224A
:10273E002C223139322E3136382E302E3132222C97
:10274E00353030300D0A0041542B4349505354411B
:10275E0052543D22544350222C223139322E3136DE
:10276E00382E302E3131222C353030300D0A0041CA
:10277E00542B43495053454E440D0A0041542B43AC
:0A278E004950434C4F53450D0A001B
:00000001FF
